:020000040800F2
:100000000050002015100008810F0008830F000821
:10001000850F0008870F0008890F00080000000006
:100020000000000000000000000000008B0F00082E
:100030008D0F0008000000008F0F0008910F0008CE
:100040005D1000085D1000085D1000085D100008DC
:100050005D1000085D1000085D1000085D100008CC
:100060005D1000085D1000085D1000085D100008BC
:100070005D1000085D1000085D1000085D100008AC
:100080005D1000085D1000085D1000085D1000089C
:100090005D1000085D1000085D1000085D1000088C
:1000A0005D1000085D1000085D1000085D1000087C
:1000B000990F00085D1000085D1000085D10000831
:1000C0005D1000085D1000085D1000085D1000085C
:1000D0005D100008A90F00085D100008B90F0008A6
:1000E0005D1000085D1000085D10000800000000B1
:1000F0000000000000000000000000000000000000
:0C01000000000000000000005FF808F1A3
:10010C0010B5054C237833B9044B13B10448AFF345
:10011C0000800123237010BD780000200000000037
:10012C000430000808B5034B1BB103490348AFF377
:10013C00008008BD000000007C0000200430000896
:10014C0081F0004102E000BF83F0004330B54FEA7C
:10015C0041044FEA430594EA050F08BF90EA020FE9
:10016C001FBF54EA000C55EA020C7FEA645C7FEA7C
:10017C00655C00F0E2804FEA5454D4EB5555B8BF9F
:10018C006D420CDD2C4480EA020281EA030382EA10
:10019C00000083EA010180EA020281EA0303362DA2
:1001AC0088BF30BD11F0004F4FEA01314FF4801C75
:1001BC004CEA113102D0404261EB410113F0004F87
:1001CC004FEA03334CEA133302D0524263EB43033E
:1001DC0094EA050F00F0A780A4F10104D5F1200EDC
:1001EC000DDB02FA0EFC22FA05F2801841F1000137
:1001FC0003FA0EF2801843FA05F359410EE0A5F10B
:10020C0020050EF1200E012A03FA0EFC28BF4CF03B
:10021C00020C43FA05F3C01851EBE37101F00045F1
:10022C0007D54FF0000EDCF1000C7EEB00006EEBFE
:10023C000101B1F5801F1BD3B1F5001F0CD3490888
:10024C005FEA30004FEA3C0C04F101044FEA4452DF
:10025C0012F5800F80F09A80BCF1004F08BF5FEA66
:10026C00500C50F1000041EB045141EA050130BD46
:10027C005FEA4C0C404141EB0101013C28BFB1F558
:10028C00801FE9D291F0000F04BF01460020B1FAA3
:10029C0081F308BF2033A3F10B03B3F120020CDA76
:1002AC000C3208DD02F1140CC2F10C0201FA0CF054
:1002BC0021FA02F10CE002F11402D8BFC2F1200CB9
:1002CC0001FA02F120FA0CFCDCBF41EA0C0190406F
:1002DC00E41AA2BF01EB0451294330BD6FEA0404B8
:1002EC001F3C1CDA0C340EDC04F11404C4F12002A3
:1002FC0020FA04F001FA02F340EA030021FA04F3B5
:10030C0045EA030130BDC4F10C04C4F1200220FA0B
:10031C0002F001FA04F340EA0300294630BD21FA49
:10032C0004F0294630BD94F0000F83F4801306BF0F
:10033C0081F480110134013D4EE77FEA645C18BF03
:10034C007FEA655C29D094EA050F08BF90EA020F9A
:10035C0005D054EA000C04BF1946104630BD91EA92
:10036C00030F1EBF0021002030BD5FEA545C05D195
:10037C004000494128BF41F0004130BD14F58004D4
:10038C003CBF01F5801130BD01F0004545F0FE4148
:10039C0041F470014FF0000030BD7FEA645C1ABF7D
:1003AC00194610467FEA655C1CBF0B46024650EAB4
:1003BC00013406BF52EA033591EA030F41F40021E0
:1003CC0030BD00BF90F0000F04BF0021704730B566
:1003DC004FF4806404F132044FF000054FF000013B
:1003EC0050E700BF90F0000F04BF0021704730B5FC
:1003FC004FF4806404F1320410F0004548BF4042D1
:10040C004FF000013EE700BF42004FEAE2014FEA25
:10041C0031014FEA02701FBF12F07F4393F07F4F00
:10042C0081F06051704732F07F4208BF704793F003
:10043C007F4F04BF41F40021704730B54FF4607416
:10044C0001F0004521F000411CE700BF50EA010219
:10045C0008BF704730B54FF000050AE050EA0102C2
:10046C0008BF704730B511F0004502D5404261EB32
:10047C0041014FF4806404F132045FEA915C3FF473
:10048C00D8AE4FF003025FEADC0C18BF03325FEA10
:10049C00DC0C18BF033202EBDC02C2F1200300FAC1
:1004AC0003FC20FA02F001FA03FE40EA0E0021FAE6
:1004BC0002F11444BDE600BF30B589B000240494A9
:1004CC00059406940794184B9A6942F020029A619D
:1004DC009A6902F020020192019A9A6942F0040290
:1004EC009A619A6902F004020292029A9A6942F0A5
:1004FC0008029A619B6903F008030393039B0B4D5D
:10050C00224649F2C001284600F0EEFF49F2C00332
:10051C0004930123059306940223079304A9284608
:10052C0000F0D0FE09B030BD00100240000C0140BC
:10053C00036801330360312B01D90023036070473A
:10054C00002303E0054A0021D1540133312BF9DD9E
:10055C000023034A1360034A13607047980200207B
:10056C000003002008030020002303E0054A0021BB
:10057C00D1540133312BF9DD0023034A1360034AB4
:10058C0013607047CC020020040300200C030020F1
:10059C0008B5044B1A68044988541846FFF7C8FF7D
:1005AC0008BD00BF000300209802002008B5044BD2
:1005BC001A68044988541846FFF7BAFF08BD00BFF3
:1005CC0004030020CC02002010B504480368044A40
:1005DC00D45CFFF7ADFF204610BD00BF0803002020
:1005EC009802002010B504480368044AD45CFFF755
:1005FC009FFF204610BD00BF0C030020CC02002042
:10060C0038B5044602680F4B1B689A4205D0226825
:10061C000D4B1B689A420AD038BD0C4D2878FFF759
:10062C00C5FF01222946074802F009F8EFE7084CFC
:10063C002078FFF7ADFF01222146034801F0FFFFB0
:10064C00EAE700BFBC010020440200209502002014
:10065C009402002070B586B006460D460023019327
:10066C00029303930493059306E003F118026A4482
:10067C00002102F8141C0133132BF6DD10E00134B9
:10068C00FFF7A2FF04F118036B4403F8140C6B1E64
:10069C00A342F4DC2A4601A9304602F03FF840B1EF
:1006AC00FFF792FF4F28FBD14F238DF80430002425
:1006BC00EDE7012006B070BDF0B587B006460D46DB
:1006CC0000231D4A13700193029303930493059323
:1006DC0006E003F118026A44002102F8141C0133ED
:1006EC00132BF6DD002703E0FFF76EFF4F2809D030
:1006FC00FFB9114A13780133DBB213702A2BF3D9EB
:10070C000127F1E74F238DF80430002407E0013472
:10071C00FFF75AFF04F118036B4403F8140C6B1E1B
:10072C00A342F4DC2A4601A9304601F0F7FF002869
:10073C00DED1012007B0F0BD9400002070B5204B35
:10074C001B68204A1568AB4218D2C5F1320500244B
:10075C0004E0FFF747FF1C4B18550134AC42F8DBA3
:10076C001A4B01221A601A4B1D60154B1D68154B54
:10077C0000221A60C72D0DDC002415E05D1BF9E783
:10078C00114B00221A55FFF72DFF0134C72CF7DD52
:10079C000025F1E70024F9E70D4B1E682644FFF70E
:1007AC0021FF094B98550134A54208DD074B1B6806
:1007BC00012BF1D0FFF716FF034B1855F3E770BD73
:1007CC00040300200C0300209C0000208C0200205D
:1007DC0090020020214A13680133136020490A68F3
:1007EC0082F001020A60B3F5FA7F36D910B51B4BC3
:1007FC00002119601AB31B4C0A464021204600F018
:10080C0073FEFFF7B1FE01224FF40041204600F0C9
:10081C006BFE4FF0FF3308221349144801F003FD1F
:10082C0000224FF40041204600F05EFE01228021A0
:10083C00204600F059FE094B00221A6010BD094CED
:10084C0001224021204600F04FFE0022802120464C
:10085C0000F04AFEFFF772FFF0E7704798000020A7
:10086C0088020020000C014000000020BC01002088
:10087C0072B6FEE700B587B000230293039304938E
:10088C0005930093019314484FF080420260472275
:10089C004260836040F2E732C2600361802383616F
:1008AC0001F0EAFA90B94FF48053029302A90A4876
:1008BC0001F01AFB60B900230093019369460648C6
:1008CC0001F080FB30B907B05DF804FBFFF7D0FFF7
:1008DC00FFF7CEFFFFF7CCFF7401002008B50A48E4
:1008EC000A4B03604FF4E133436000238360C36021
:1008FC0003610C2242618361C36101F065FC00B9A4
:10090C0008BDFFF7B5FF00BF4402002000480040BF
:10091C0008B50A480A4B03604FF4E13343600023E7
:10092C008360C36003610C2242618361C36101F087
:10093C004BFC00B908BDFFF79BFF00BFBC010020BA
:10094C000038014008B50A480A4B03604FF4E13304
:10095C00436000238360C36003610C2242618361A6
:10096C00C36101F031FC00B908BDFFF781FF00BF86
:10097C00000200200044004008B50748074B036004
:10098C000423436040F6FF73836000F0B3FD00B9AD
:10099C0008BDFFF76DFF00BF68010020003000406C
:1009AC0000B591B02822002106A801F08FFE00238B
:1009BC0001930293039304930593092306934FF435
:1009CC008033079301220A920C9202220D920E930D
:1009DC004FF4E0130F9306A800F0D4FD80B90F2359
:1009EC00019302210291002303934FF4806204923D
:1009FC00059301A801F006F820B911B05DF804FBCD
:100A0C00FFF736FFFFF734FF00B58FB000F048FB5F
:100A1C00FFF7C6FFFFF750FDFFF72CFFFFF75EFF58
:100A2C00FFF776FFFFF78EFFFFF7A6FFBF4B002205
:100A3C001A70BF4C01224FF48051204600F054FD37
:100A4C0001224021204600F04FFD0122802120464A
:100A5C0000F04AFDB74801F0DFF8FFF771FDB64D25
:100A6C000122B649284601F0EAFD0122B449B548F5
:100A7C0001F0E5FDFFF764FDFFF762FDB24C204687
:100A8C0000F064FD4FF0FF330822B049284601F016
:100A9C00CAFB4FF47A7000F027FB204600F056FD9D
:100AAC004FF47A7000F020FB204600F04FFD4FF41D
:100ABC007A7000F019FB204600F048FD4FF47A7074
:100ACC0000F012FB204600F041FD4FF47A7000F06C
:100ADC000BFB204600F03AFD4FF47A7000F004FB5B
:100AEC00204600F033FDFFF72BFD994C00232370BB
:100AFC00FFF726FDFFF724FD4FF0FF330422954945
:100B0C008D4801F090FB04219348FFF7A3FD207062
:100B1C000028EAD0864C01224FF40041204600F018
:100B2C00E3FC00224FF40041204600F0DDFC864C33
:100B3C00204600F00BFDC82000F0D6FA204600F04D
:100B4C0005FDFFF7FDFC824C00232370FFF7F8FC3A
:100B5C004FF0FF330D228149774801F064FB7A484E
:100B6C0000F0F4FC04217C48FFF774FD2070002891
:100B7C00E9D0C82000F0B8FA734800F0E7FCFFF7A2
:100B8C00DFFC734C00212170019124252A4602A818
:100B9C0001F09CFD724B734A734901A801F09EFD54
:100BAC00FFF7CEFC4FF0FF332A4601A9624801F053
:100BBC003AFB04216848FFF74DFD20700028E0D077
:100BCC00C82000F091FA604800F0C0FCFFF7B8FCB8
:100BDC005F4C00232370FFF7B3FC5B4800F0B6FCBE
:100BEC004FF0FF330D226149534801F01CFB0421E7
:100BFC005948FFF72FFD20700028E9D0642000F041
:100C0C0073FA514800F0A2FCFFF79AFC504C0021FB
:100C1C00217001912E2202A801F058FDFFF790FCE3
:100C2C00534B544A544901A801F058FDFFF788FC76
:100C3C00454800F08BFC4FF0FF33262201A93E48BB
:100C4C0001F0F1FA04214448FFF704FD207000285C
:100C5C00DCD03D4800F07AFCC82000F045FA4AE0B0
:100C6C00C82000F041FA384800F070FCFFF768FC2F
:100C7C00424C4FF0FF33082221462F4801F0D3FAA3
:100C8C002B4D00224FF48051284600F02DFC4FF0E4
:100C9C00FF33082221463A4801F0C5FA4FF496700A
:100CAC0000F022FA04212C48FFF706FD284C207096
:100CBC0001224FF48051284600F016FC2378B3B97A
:100CCC00234B00221A70FFF73BFC4FF0FF330E2230
:100CDC002C49194801F0A7FAFFF776FC3E28BFD043
:100CEC00294B1A68294B1B689A42F5D3B8E74FF485
:100CFC00F57000F0F9F9144800F028FCFFF720FC1F
:100D0C00234B5A799879000440EA0260DA7840EA79
:100D1C0002201B7918431F4B1860FFF775FB024626
:100D2C000B461D49154801F0D9FCC9E79602002075
:100D3C00000C0140740100204402002094020020A9
:100D4C0095020020BC010020680100201C30000826
:100D5C009702002028300008303000083830000896
:100D6C004830000854300008603000087C3000081F
:100D7C008C300008983000089C30000810030020CC
:100D8C0000020020C43000080803002000030020EB
:100D9C009C00002064010020BC30000882B00E4B87
:100DAC009A6942F001029A619A6902F0010200927A
:100DBC00009ADA6942F08052DA61DB6903F0805301
:100DCC000193019B054A536823F0E06343F00073E1
:100DDC00536002B0704700BF001002400000014099
:100DEC000368B3F1804F00D0704700B583B003F5B2
:100DFC000433DA6942F00102DA61DB6903F00103C2
:100E0C000193019B002211461C2000F093F91C2039
:100E1C0000F0C8F903B05DF804FB000030B58BB0EE
:100E2C000023069307930893099303684B4A934254
:100E3C0007D04B4A934236D04A4A93425BD00BB010
:100E4C0030BD494B9A6942F480429A619A6902F426
:100E5C0080420092009A9A6942F004029A619B695E
:100E6C0003F004030193019B4FF4007306930223D8
:100E7C000793032309933D4D06A9284600F022FA57
:100E8C004FF48063069300240794089406A928461F
:100E9C0000F018FA22462146252000F04BF92520B7
:100EAC0000F080F9CBE7304BDA6942F40032DA61BA
:100EBC00DA6902F400320292029A9A6942F0040250
:100ECC009A619B6903F004030393039B0423069329
:100EDC000223079303230993244C06A9204600F010
:100EEC00F1F90823069300230793089306A92046DB
:100EFC0000F0E8F9A3E71C4BDA6942F48022DA61CE
:100F0C00DA6902F480220492049A9A6942F0080287
:100F1C009A619B6903F008030593059B4FF480636A
:100F2C0006930223079303230993114D06A9284620
:100F3C0000F0C8F94FF4006306930024079408945A
:100F4C0006A9284600F0BEF922462146272000F0CB
:100F5C00F1F8272000F026F971E700BF00380140B6
:100F6C0000440040004800400010024000080140CE
:100F7C00000C0140FEE7FEE7FEE7FEE7FEE77047E8
:100F8C007047704708B500F09DF808BD08B50248D9
:100F9C0000F07AFE08BD00BF7401002008B50248BD
:100FAC0001F030FA08BD00BFBC01002008B50248B2
:100FBC0001F028FA08BD00BF4402002010B503461A
:100FCC000C4A0D490D48006840B10C4800680344B8
:100FDC00521A934206D8094A136010BD0748084CB0
:100FEC000460F2E701F048FB0C2303604FF0FF3084
:100FFC00F3E700BF0050002000040000180300209D
:10100C0030030020704700000C480D490D4A0023A6
:10101C0002E0D458C4500433C4188C42F9D30A4AA1
:10102C000A4C002301E013600432A242FBD3FFF709
:10103C00E9FF01F027FBFFF7E7FC704700000020F9
:10104C0078000020383100087800002030030020A0
:10105C00FEE7000010B504460E4B18784FF47A7377
:10106C00B3FBF0F30C4A1068B0FBF3F000F0A8F8F7
:10107C0068B90F2C01D901200AE0002221464FF05B
:10108C00FF3000F057F8054B1C60002000E00120F9
:10109C0010BD00BF0C000020080000201000002034
:1010AC0008B5074A136843F010031360032000F0DF
:1010BC002FF80020FFF7CEFFFFF770FE002008BDD1
:1010CC0000200240034A1168034B1B780B44136049
:1010DC00704700BF1C0300200C000020014B186857
:1010EC00704700BF1C03002038B50446FFF7F6FF1D
:1010FC000546B4F1FF3F02D0044B1B781C44FFF7AC
:10110C00EDFF401BA042FAD338BD00BF0C000020FD
:10111C00074AD36823F4E0631B041B0C000200F4A1
:10112C00E060034343F0BF6343F40033D360704784
:10113C0000ED00E000B5194BDB68C3F30223C3F1EB
:10114C00070CBCF1040F28BF4FF0040C03F1040E84
:10115C00BEF1060F18D9033B4FF0FF3E0EFA0CFC04
:10116C0021EA0C0199400EFA03F322EA0303194316
:10117C0000280BDB0901C9B200F1604000F56140A9
:10118C0080F800135DF804FB0023E5E700F00F0086
:10119C000901C9B2024B1954F4E700BF00ED00E09D
:1011AC0014ED00E0002807DB00F01F0240090123CA
:1011BC009340024A42F82030704700BF00E100E043
:1011CC000138B0F1807F0BD24FF0E0235861054A13
:1011DC00F02182F823100020986107221A617047D1
:1011EC000120704700ED00E090F82130022B06D072
:1011FC0004238363002380F82030012070470268A9
:10120C00136823F00E0313600268136823F00103C4
:10121C001360036CC16B012202FA03F34B6080F87C
:10122C002120002380F820301846704708B590F82C
:10123C002130022B03D004238363012008BD0268F4
:10124C00136823F00E0313600268136823F0010384
:10125C0013600368194A934214D0143293421FD07E
:10126C00143293421ED0143293421ED01432934245
:10127C001ED01432934202D04FF0807203E04FF430
:10128C00801200E001220E4B5A60012380F82130BD
:10129C00002380F82030436B6BB198470020CDE7DA
:1012AC001022F0E74FF48072EDE74FF48052EAE73A
:1012BC004FF48032E7E70020C0E700BF080002408F
:1012CC000000024070B582B00024A446A6E0804D18
:1012DC00AA4210D007D97F4DAA420CD005F5803513
:1012EC00AA4208D013E0A5F58015AA4203D005F553
:1012FC007025AA4207D18A68002A58D0012A51D0F9
:10130C004361082403E0A5F58015AA42F3D0BEF191
:10131C00FF0F4ED80646BEF1FF0F4CD84FEA8C0299
:10132C0033680F25954023EA050304FA02F21343B0
:10133C0033604B6813F0805F6ED0674B9A6942F054
:10134C0001029A619B6903F001030193019B4FEA2F
:10135C009C02951C614B53F825600CF003039D0017
:10136C000F23AB4026EA03065D4B984229D003F5C8
:10137C008063984200F08E8003F58063984200F001
:10138C008B8003F58063984219D004231AE0CC6853
:10139C00BDE7CC680434BAE7CC680834B7E7CC684E
:1013AC000C34B4E703610824B1E70024AFE704244C
:1013BC00ADE7061DAFE7ACF108029200B0E70323DE
:1013CC0000E00023AB4033430232444D45F8223059
:1013DC004B6813F4803F61D0424A136843EA0E0312
:1013EC0013604B6813F4003F5ED03E4A536843EAE7
:1013FC000E0353604B6813F4801F5BD0394A93681B
:10140C0043EA0E0393604B6813F4001F58D0354A1F
:10141C00D36843EA0E03D3600CF1010C0A6832FA6C
:10142C000CF353D0012303FA0CF302EA030E33EA54
:10143C000202F1D14A68122A3FF649AF122A3FF64E
:10144C0066AF01A555F822F0031300089B130008A2
:10145C00A5130008B71300081B1300081B13000882
:10146C001B1300081B1300081B1300081B13000898
:10147C001B1300081B1300081B1300081B13000888
:10148C001B1300081B1300081B1300089F130008F4
:10149C00AB130008012395E7022393E7114A136865
:1014AC0023EA0E0313609CE70E4A536823EA0E03EB
:1014BC0053609FE70B4A936823EA0E039360A2E7FD
:1014CC00084AD36823EA0E03D360A5E702B070BDC7
:1014DC0000002210000031100010024000000140FA
:1014EC0000080140000401400AB101617047090481
:1014FC000161704740B338B5044603684CF6CC42E2
:10150C001A60036845F255521A60036842685A60C3
:10151C00036882689A60FFF7E1FD05462368DA6884
:10152C0012F0030F0BD0FFF7D9FD401B2728F5D97C
:10153C002368DB6813F0030FF0D0032003E04AF6B6
:10154C00AA221A60002038BD0120704703684AF6B1
:10155C00AA221A600020704782B0084B1B68084A08
:10156C00A2FB03235B0A00FB03F3019300BF019B67
:10157C005A1E0192002BF9D102B0704708000020CE
:10158C00D34D6210002800F0F18170B582B0044692
:10159C00036813F0010F2CD0994B5B6803F00C031C
:1015AC00042B1DD0964B5B6803F00C03082B12D058
:1015BC006368B3F5803F41D0002B55D103F18043D4
:1015CC0003F504331A6822F480321A601A6822F484
:1015DC0080221A6037E08A4B5B6813F4803FE7D0B7
:1015EC00874B1B6813F4003F03D06368002B00F09B
:1015FC00BF81236813F0020F75D0814B5B6813F029
:10160C000C0F5FD07E4B5B6803F00C03082B54D09F
:10161C002369002B00F08A807A4B01221A60FFF7B5
:10162C005DFD0546764B1B6813F0020F75D1FFF775
:10163C0055FD401B0228F5D903209EE1704A136822
:10164C0043F480331360636843B3FFF747FD0546EB
:10165C006B4B1B6813F4003FCBD1FFF73FFD401BD6
:10166C006428F5D9032088E1B3F5A02F09D0644B89
:10167C001A6822F480321A601A6822F480221A60E6
:10168C00E1E703F18043A3F53C331A6842F480226E
:10169C001A601A6842F480321A60D4E7FFF71EFD14
:1016AC000546574B1B6813F4003FA2D0FFF716FDFD
:1016BC00401B6428F5D903205FE1514B5B6813F4A0
:1016CC00803FA5D14E4B1B6813F0020F03D023694A
:1016DC00012B40F04F814A4A136823F0F8036169EB
:1016EC0043EAC1031360236813F0080F33D0A369D6
:1016FC00002B5CD0434B0122C3F88024FFF7EEFC97
:10170C0005463F4B5B6A13F0020F21D1FFF7E6FC55
:10171C00401B0228F5D903202FE1394A136823F026
:10172C00F803616943EAC1031360DCE7354B00221F
:10173C001A60FFF7D3FC0546314B1B6813F0020F00
:10174C00D1D0FFF7CBFC401B0228F5D9032014E1C4
:10175C000120FFF701FF236813F0040F00F09680BF
:10176C00274BDB6913F0805F34D1254BDA6942F0EB
:10177C008052DA61DB6903F080530193019B0125F0
:10178C00214B1B6813F4807F26D0E368012B3DD0DE
:10179C00002B53D103F1804303F504331A6A22F072
:1017AC0001021A621A6A22F004021A6233E0154B23
:1017BC000022C3F88024FFF791FC0546104B5B6AAE
:1017CC0013F0020FC7D0FFF789FC401B0228F5D994
:1017DC000320D2E00025D3E70B4A136843F480734F
:1017EC001360FFF77BFC0646074B1B6813F4807FE6
:1017FC00CBD1FFF773FC801B6428F5D90320BCE028
:10180C000010024000004242007000405F4A136A20
:10181C0043F001031362E36833B3FFF75FFC064642
:10182C005A4B1B6A13F0020F2FD1FFF757FC801B8A
:10183C0041F288339842F3D903209EE0052B09D05E
:10184C00524B1A6A22F001021A621A6A22F004023E
:10185C001A62E0E74D4B1A6A42F004021A621A6AE5
:10186C0042F001021A62D6E7FFF738FC0646474BF6
:10187C001B6A13F0020F08D0FFF730FC801B41F2FB
:10188C0088339842F3D9032077E0E5B9E369002B5C
:10189C0072D03E4A526802F00C02082A56D0022B33
:1018AC0017D03B4B00221A66FFF718FC0446374B47
:1018BC001B6813F0007F47D0FFF710FC001B0228B9
:1018CC00F5D9032059E0314AD36923F08053D36111
:1018DC00DCE72F4B00221A66FFF700FC05462B4B6A
:1018EC001B6813F0007F06D0FFF7F8FB401B0228A3
:1018FC00F5D9032041E0236AB3F5803F1AD0234980
:10190C004B6823F47413226A606A024313434B60DE
:10191C001F4B01221A66FFF7E1FB04461B4B1B68A9
:10192C0013F0007F0ED1FFF7D9FB001B0228F5D96D
:10193C00032022E0154A536823F40033A1680B43BB
:10194C005360DCE7002018E0002016E0012B16D0D5
:10195C000E4B5B6803F48031226A914211D103F47F
:10196C007013626A93420ED1002006E0012070478A
:10197C00012002E0012000E0002002B070BD012037
:10198C00FBE70120F9E70120F7E700BF0010024058
:10199C000000424286B0174B0FCB0DF1180C0CE92E
:1019AC000F0040F20123ADF80430134B5B6803F0D9
:1019BC000C02082A02D0114806B07047C3F38342C8
:1019CC0018326A4412F8100C13F4803F0DD00A4BF5
:1019DC005B68C3F3404318336B4413F8143C074A59
:1019EC0002FB00F0B0FBF3F0E6E7054B03FB00F065
:1019FC00E2E700BFEC3000080010024000127A0051
:101A0C0000093D00002800F0A08070B50D4604468A
:101A1C00524B1B6803F007038B420BD24F4A1368DF
:101A2C0023F007030B431360136803F007038B4287
:101A3C0040F08D80236813F0020F17D013F0040FC1
:101A4C0004D0474A536843F4E0635360236813F0AF
:101A5C00080F04D0424A536843F460535360404A21
:101A6C00536823F0F003A1680B435360236813F011
:101A7C00010F31D06368012B20D0022B25D0384ABE
:101A8C00126812F0020F64D035494A6822F0030242
:101A9C0013434B60FFF722FB0646314B5B6803F0A8
:101AAC000C036268B3EB820F16D0FFF717FB801B99
:101ABC0041F288339842F0D9032045E0284A126855
:101ACC0012F4003FE0D101203EE0254A126812F0EA
:101ADC00007FD9D1012037E0204B1B6803F00703AE
:101AEC00AB420AD91D4A136823F007032B4313603A
:101AFC00136803F00703AB422DD1236813F0040FD6
:101B0C0006D0174A536823F4E063E1680B43536033
:101B1C00236813F0080F07D0114A536823F460535D
:101B2C00216943EAC1035360FFF734FF0C4B5B6838
:101B3C00C3F303130B4AD35CD8400B4B18600B4B0D
:101B4C001868FFF787FA002070BD0120704701204C
:101B5C00FAE70120F8E70120F6E700BF0020024079
:101B6C0000100240D43000080800002010000020B3
:101B7C00014B1868704700BF0800002008B5FFF73C
:101B8C00F7FF044B5B68C3F30223034AD35CD840D2
:101B9C0008BD00BF00100240E430000808B5FFF794
:101BAC00E7FF044B5B68C3F3C223034AD35CD84002
:101BBC0008BD00BF00100240E430000810B4036AF6
:101BCC00046A24F001040462846924F0F00C4CEAE9
:101BDC00021223F00A030B438261036210BC7047AC
:101BEC0010B4046A24F0100404628469036A24F4B7
:101BFC00704C4CEA023223F0A00343EA01138261D9
:101C0C00036210BC7047836823F070030B4343F0EE
:101C1C00070383607047000090F83D30DBB2012B66
:101C2C0027D1022380F83D300268D36843F00103CA
:101C3C00D3600368114A934210D0B3F1804F0DD09A
:101C4C00A2F59432934209D002F58062934205D0FA
:101C5C001A6842F001021A60002070479A6802F07C
:101C6C000702062A07D01A6842F001021A60002007
:101C7C007047012070470020704700BF002C0140C6
:101C8C00704770477047704710B5044603681A696F
:101C9C0012F0020F11D0DA6812F0020F0DD06FF0B3
:101CAC0002021A610123037703689B6913F0030F87
:101CBC0070D0FFF7E6FF0023237723681A6912F030
:101CCC00040F12D0DA6812F0040F0ED06FF0040279
:101CDC001A610223237723689B6913F4407F5FD03A
:101CEC002046FFF7CEFF0023237723681A6912F0F2
:101CFC00080F12D0DA6812F0080F0ED06FF008023D
:101D0C001A61042323772368DB6913F0030F4ED089
:101D1C002046FFF7B6FF0023237723681A6912F0D9
:101D2C00100F12D0DA6812F0100F0ED06FF01002F4
:101D3C001A61082323772368DB6913F4407F3DD0B5
:101D4C002046FFF79EFF0023237723681A6912F0C1
:101D5C00010F03D0DA6812F0010F36D123681A692B
:101D6C0012F0800F03D0DA6812F0800F34D12368A0
:101D7C001A6912F0400F03D0DA6812F0400F32D11A
:101D8C0023681A6912F0200F03D0DA6812F0200FC2
:101D9C0030D110BDFFF774FF2046FFF773FF8AE7C1
:101DAC002046FFF76DFF2046FFF76CFF9BE72046B0
:101DBC00FFF766FF2046FFF765FFACE72046FFF70D
:101DCC005FFF2046FFF75EFFBDE76FF001021A616F
:101DDC002046FEF7FFFCC1E76FF080021A61204637
:101DEC0000F027F9C3E76FF040021A612046FFF7B5
:101DFC004AFFC5E76FF020021A61204600F018F97F
:101E0C00C7E7000003681B4A90420AD0B0F1804F2C
:101E1C0007D0A2F59432904203D002F58062904232
:101E2C0003D123F070034A681343124A90420AD03C
:101E3C00B0F1804F07D0A2F59432904203D002F556
:101E4C008062904203D123F44073CA68134323F099
:101E5C0080034A69134303608B68C3620B68836217
:101E6C00044B984202D00123436170470B69036312
:101E7C00F9E700BF002C014040B310B5044690F8C0
:101E8C003D30F3B1022384F83D30214651F8040B68
:101E9C00FFF7B8FF012384F8463084F83E3084F80D
:101EAC003F3084F8403084F8413084F8423084F874
:101EBC00433084F8443084F8453084F83D300020B9
:101ECC0010BD80F83C30FEF78BFFDBE7012070473C
:101EDC0010B4846824F47F4C42EA03220A4342EA99
:101EEC000C02826010BC704790F83C30012B66D01D
:101EFC0010B50446012380F83C30022380F83D30B5
:101F0C000268936823F47F4323F0770393600B6894
:101F1C00602B40D022D8402B47D00BD9502B0ED160
:101F2C00CA6849680068FFF749FE50212068FFF72E
:101F3C006AFE04E0202B0CD008D9302B09D00123E9
:101F4C0084F83D30002084F83C0010BD0BB1102B00
:101F5C00F5D119462068FFF756FEF0E7702B0ED02E
:101F6C00B3F5005FEBD1CB684A6889680068FFF76E
:101F7C00AFFF2268936843F480439360DFE7CB683C
:101F8C004A6889680068FFF7A3FF2268936843F0EA
:101F9C0077039360D3E7CA6849680068FFF720FEAF
:101FAC0060212068FFF72FFEC9E7CA6849680068FE
:101FBC00FFF704FE40212068FFF725FEBFE7022053
:101FCC007047000090F83C30012B2CD010B401234A
:101FDC0080F83C30022380F83D3003685A689C68D6
:101FEC0022F0700C0A6842EA0C025A6003680F4A2D
:101FFC0093420AD0B3F1804F07D0A2F594329342AA
:10200C0003D002F58062934204D124F080044A6824
:10201C0014439C60012380F83D30002380F83C3051
:10202C00184610BC70470220704700BF002C0140BE
:10203C00704770470268D36823F49073D3600268CA
:10204C00536923F001035361036B012B05D020234B
:10205C0080F83E300023036370470268D36823F096
:10206C001003D360F3E790F83D30DBB2212B01D0A5
:10207C00022070478368B3F5805F17D0036A5A1C3F
:10208C0002621A7803685A60C38C9BB2013B9BB204
:10209C00C3844BB90268D36823F08003D360026811
:1020AC00D36843F04003D360002070470369002BD2
:1020BC00E4D1036A1B880268C3F308035360036A04
:1020CC0002330362E0E7000010B5044602681369AE
:1020DC0023F44053C1680B431361836802691343B3
:1020EC0042691A430168CB6823F4B05323F00C0304
:1020FC001343CB600268536923F4407381690B432B
:10210C0053610268134B9A4220D0FFF737FD024609
:10211C0002EB820202EB820263689B00B2FBF3F2D9
:10212C000D48A0FB02314909642303FB11231B0159
:10213C003233A0FB03235B0903F0F00202EB011224
:10214C0003F00F03216813448B6010BDFFF726FDCD
:10215C000246DDE7003801401F85EB512DE9F843BD
:10216C0005460F4616469946DDF820802C682468F3
:10217C0037EA04030CBF4FF0010C4FF0000CB445D0
:10218C001FD1B8F1FF3FF1D0B8F1000F05D0FEF729
:10219C00A5FFA0EB09004045E8D92A68D36823F4D1
:1021AC00D073D3602A68536923F001035361202351
:1021BC0085F83D3085F83E30002385F83C3003200F
:1021CC0000E00020BDE8F88358B310B5044690F841
:1021DC003D300BB3242384F83D302268D36823F4BC
:1021EC000053D3602046FFF76FFF2268136923F476
:1021FC00904313612268536923F02A0353612268C8
:10220C00D36843F40053D36000202064202384F867
:10221C003D3084F83E3010BD80F83C30FEF7FEFDBA
:10222C00D8E7012070472DE9F04182B01E4690F8A6
:10223C003D30DBB2202B54D104460D46904600298C
:10224C0053D0002A53D090F83C30012B51D00123AD
:10225C0080F83C3000230364212380F83D30FEF7E6
:10226C003DFF0746A4F82480A4F82680A368B3F5A4
:10227C00805F05D04FF00008002384F83C3012E05A
:10228C00236913B14FF00008F6E7A8460025F3E7E1
:10229C0038F8023B2268C3F308035360E28C92B215
:1022AC00013A92B2E284E38C9BB273B100963B4646
:1022BC00002280212046FFF751FFE0B9002DE7D026
:1022CC0015F8012B23685A60E8E700963B4600227C
:1022DC0040212046FFF742FF78B9202384F83D3097
:1022EC0000E0022002B0BDE8F0810120FAE70120F5
:1022FC00F8E70220F6E70320F4E70320F2E7704743
:10230C0008B50168CA6822F04002CA60202280F831
:10231C003D20FFF7F4FF002008BD704708B5406A68
:10232C000023C385C384FFF7F8FF08BD704790F8FE
:10233C003E30DBB2222B60D18368B3F5805F46D090
:10234C00826AB3F5805F04D0002B4DD10369002B5A
:10235C004AD103685B681370836A01338362C38D4F
:10236C009BB2013B9BB2C385002B48D100B583B017
:10237C000268D36823F02003D3600268D36823F487
:10238C008073D3600268536923F0010353612023E7
:10239C0080F83E30036B012B2CD1002303630268C1
:1023AC00D36823F01003D36003681A6812F0100F7F
:1023BC0006D0002201921A6801925B680193019B7E
:1023CC00818DFFF7B3FF002003B05DF804FB0269B9
:1023DC00002AB5D1826A03685B68C3F308031380D3
:1023EC00836A02338362BAE703685B6803F07F0396
:1023FC001370B1E7FEF704F9E5E7022070470020FF
:10240C007047000030B583B0044602681368D0688A
:10241C00516913F00F0505D113F0200F02D010F005
:10242C00200F19D12DB111F0010119D110F4907FA9
:10243C0016D1216B012975D013F0800F03D010F049
:10244C00800F40F0D78013F0400F03D010F0400FF6
:10245C0040F0D48003B030BD2046FFF768FFF9E7A9
:10246C0013F0010F06D010F4807F03D0226C42F0E1
:10247C000102226413F0040F04D019B1226C42F053
:10248C000202226413F0020F04D019B1226C42F044
:10249C000402226413F0080F07D010F0200F00D1B3
:1024AC0019B1226C42F008022264226C002AD1D0AD
:1024BC0013F0200F02D010F0200F21D123685B699C
:1024CC0003F04003226C12F0080F00D123B3204616
:1024DC00FFF7B0FD23685A6912F0400F18D05A6903
:1024EC0022F040025A61A36B73B1464A5A63A06B47
:1024FC00FEF79CFE0028ADD0A06B436B9847A9E774
:10250C002046FFF714FFD9E72046FFF706FFA1E7A7
:10251C002046FFF702FF9DE72046FFF7FEFE002353
:10252C00236497E713F0100F86D010F0100F83D0B0
:10253C00002301931368019353680193019B536922
:10254C0013F0400F32D0A16B0B685B689BB2002B71
:10255C0080D0A08D98427FF67DAFE3858B69202BD0
:10256C0008D1A18DE38D9BB2C91A89B22046FFF721
:10257C00DDFE6FE7D36823F48073D3602268536960
:10258C0023F0010353612268536923F04003536124
:10259C00202384F83E30002323632268D36823F081
:1025AC001003D360A06BFEF71FFEDAE7A18DE38D5D
:1025BC009BB2C91A89B2E38D9BB2002B3FF44AAF90
:1025CC0000293FF447AFD36823F49073D36022689B
:1025DC00536923F001035361202384F83E30002318
:1025EC0023632268D36823F01003D3602046FFF7DF
:1025FC009DFE2FE72046FFF736FD2BE72046FFF721
:10260C007FFE27E729230008034681628285C28565
:10261C0000201864222283F83E2083F83C001968BD
:10262C00CA6842F48072CA6019684A6942F00102B1
:10263C004A611A68D36843F02003D360704708B529
:10264C0090F83E30DBB2202B0DD171B17AB190F8FD
:10265C003C30012B0DD0012380F83C300023036368
:10266C00FFF7D2FF00E0022008BD0120FCE70120AB
:10267C00FAE70220F8E70000014B1868704700BF2A
:10268C001400002070B500260C4D0D4C641BA410DA
:10269C00A64209D100F0B0FC00260A4D0A4C641B7E
:1026AC00A410A64205D170BD55F8043B98470136DD
:1026BC00EEE755F8043B98470136F2E73031000855
:1026CC003031000830310008343100080346024430
:1026DC00934200D1704703F8011BF9E70EB46FF079
:1026EC00004100B59CB01DAB02900690079104917F
:1026FC000848094953F8042B0591006802A9019375
:10270C0000F07CF80022029B1A701CB05DF804EB00
:10271C0003B07047140000200802FFFF034610B5F9
:10272C0072B10139841813F8010B11F8012F904282
:10273C0001D1A34201D1801A10BD0028F3D1FAE7D0
:10274C001046F9E72DE9F0478E6882469E420C460A
:10275C0090461F4638D88A8912F4906F32D025687B
:10276C0009690133A5EB010965694B4405EB450586
:10277C0005EBD5756D109D4238BF1D46530531D5FF
:10278C00294600F06FFB064650B90C234FF0FF3082
:10279C00CAF80030A38943F04003A381BDE8F08759
:1027AC004A46216900F0CEFAA38923F4906343F0E2
:1027BC008003A38126614E4426603E466561A5EBED
:1027CC000905A560BE4200D93E4632464146206806
:1027DC0000F0C6FAA36800209B1BA3602368334457
:1027EC002360DBE72A4600F0B1FB06460028E1D166
:1027FC005046216900F0CEFAC7E700002DE9F04FF2
:10280C0098468B8907461B060D4614469DB00ED57F
:10281C000B6963B9402100F025FB2860286120B9C1
:10282C000C233B604FF0FF30D1E040236B61002361
:10283C00099320238DF8293030234FF00109CDF86E
:10284C000C80DFF8A4818DF82A3023469A4613F8C1
:10285C00012B0AB1252AF9D1BAEB040B0BD05B463C
:10286C00224629463846FFF76DFF013000F0AA805A
:10287C00099A5A4409929AF80030002B00F0A28071
:10288C0000234FF0FF32CDE905230AF1010A04932E
:10289C0007938DF853301A935446052214F8011BF4
:1028AC00514800F041FA049AD8B9D00644BF20230D
:1028BC008DF85330110744BF2B238DF853309AF801
:1028CC0000302A2B15D0544600204FF00A0C079AE2
:1028DC00214611F8013B303B092B4ED9B0B1079280
:1028EC0014E0A0EB080309FA03F31343A246049384
:1028FC00D2E7039B191D1B680391002BBBBF5B42E6
:10290C0042F0020207930793B8BF049223782E2B50
:10291C000CD163782A2B35D1039B02341A1D1B680A
:10292C000392002BB8BF4FF0FF330593DFF8BCA028
:10293C0003225046217800F0F7F940B14023A0EB78
:10294C000A0003FA00F0049B01340343049314F8C7
:10295C00011B062226488DF8281000F0E5F9002806
:10296C0038D0244B1BBB039B073323F007030833DE
:10297C000393099B3344099367E70C4601200CFB36
:10298C000232A5E700234FF00A0C194601340593D7
:10299C00204610F8012B303A092A03D9002BC5D058
:1029AC000591C3E7044601230CFB0121F0E703ABBF
:1029BC0000932A463846104B04A9AFF30080421C02
:1029CC000646D6D1AB895B063FF52CAF09981DB0F6
:1029DC00BDE8F08F03AB00932A463846064B04A99A
:1029EC0000F07CF8EBE700BFFD3000080331000875
:1029FC000731000800000000512700082DE9F047BE
:102A0C00164699468A680B6907469342B8BF134627
:102A1C00336091F843200C46DDF820800AB1013375
:102A2C0033602368990642BF3368023333602568EC
:102A3C0015F0060506D104F1190AE36832689B1AF1
:102A4C00AB4228DC94F84320131E226818BF0123E4
:102A5C0092062DD44946384604F14302C047013052
:102A6C0020D02368E56803F00603042B18BF00256B
:102A7C0032684FF00006A36808BFAD1A226908BF80
:102A8C0025EAE5759342C4BF9B1AED181A34B5427A
:102A9C001AD1002008E00123524649463846C04767
:102AAC00013003D14FF0FF30BDE8F0870135C4E7AA
:102ABC003020E11881F843005A1C94F84510224448
:102ACC00023382F84310C5E70123224649463846B3
:102ADC00C0470130E6D00136D9E700002DE9FF47A9
:102AEC000F7E9146782F80460C469A460C9D01F13C
:102AFC00430207D8622F0AD8002F00F0D980582F34
:102B0C0000F0A48004F1420584F842703AE0A7F189
:102B1C006303152BF6D801A151F823F0812B000883
:102B2C00952B0008112B0008112B0008112B000805
:102B3C00112B0008952B0008112B0008112B0008F5
:102B4C00112B0008112B0008A32C0008C52B000822
:102B5C00852C0008112B0008112B0008C52C00082F
:102B6C00112B0008C52B0008112B0008112B000895
:102B7C008D2C00082B681A1D1B682A6004F1420575
:102B8C0084F842300123A4E020682968060601F18C
:102B9C0004030AD50E682B60002E03DA2D2376422F
:102BAC0084F843300A235E4819E00E6810F0400F99
:102BBC002B6018BF36B2EFE72B682068191D29600F
:102BCC00010601D51E6802E04606FBD51E886F2F54
:102BDC000CBF08230A235248002184F8431065686F
:102BEC00002DA8BF2168A560A4BF21F004012160BD
:102BFC000EB9002D4DD01546B6FBF3F103FB116752
:102C0C00C75D05F8017D3746BB420E46F4D9082B4B
:102C1C000BD12368DE0708D5236961689942DEBFB2
:102C2C00302305F8013C05F1FF35521B22614B4660
:102C3C0021464046CDF800A003AAFFF7DFFE013085
:102C4C004CD14FF0FF3004B0BDE8F087344881F828
:102C5C0045702968236851F8046B29601D0614D54A
:102C6C00DF0744BF43F0200323601EB9236823F021
:102C7C00200323601023AFE7236843F02003236075
:102C8C007823284884F84530E3E7590648BFB6B2A4
:102C9C00E6E71546BBE72B682668181D61692860B6
:102CAC0035061B6801D5196002E07006FBD519804A
:102CBC00002315462361BAE72B6800211A1D2A60F0
:102CCC001D686268284600F02FF808B1401B606050
:102CDC0063682361002384F84330A8E72A464946F9
:102CEC0040462369D0470130ABD023689B0713D4EF
:102CFC00E068039B9842B8BF1846A4E7012332460C
:102D0C0049464046D04701309BD00135E3680399D2
:102D1C005B1AAB42F2DCEBE7002504F11906F5E790
:102D2C000E3100081F310008034610B5C9B2024429
:102D3C009342184601D1002003E0047801338C4201
:102D4C00F6D110BD0A44914200F1FF3300D1704717
:102D5C0010B511F8014B914203F8014FF9D110BD98
:102D6C00884210B501EB020402D98442234607D8ED
:102D7C00431EA14208D011F8012B03F8012FF8E7EC
:102D8C00014602448A4200D110BD13F8014D02F8ED
:102D9C00014DF7E738B50546002940D051F8043C01
:102DAC000C1F002BB8BFE41800F010F91C4A136874
:102DBC0033B9636014602846BDE8384000F00CB9A4
:102DCC00A34208D9206821188B4201BF19685B689F
:102DDC0009182160EDE71A465B680BB1A342FAD9DA
:102DEC0011685018A0420BD120680144501883423E
:102DFC001160E0D118685B68014411605360DAE738
:102E0C0002D90C232B60D6E7206821188B4201BF16
:102E1C0019685B680918216063605460CBE738BDA2
:102E2C002003002070B50E4E0C463168054611B9D2
:102E3C0000F0BCF830602146284600F0B7F8431C7F
:102E4C000AD0C41C24F00304A04207D0211A28463F
:102E5C0000F0ACF8013001D14FF0FF34204670BDCA
:102E6C00240300202DE9F041CD1C25F00305083585
:102E7C000C2D38BF0C25002D074601DBA94205D9C6
:102E8C000C2300263B603046BDE8F0812E4E00F04E
:102E9C009DF833681C4634BB29463846FFF7C2FF01
:102EAC00431C04464DD134682646002E40D123687D
:102EBC003146384604EB030800F078F880453AD1E7
:102ECC00216803356D1A25F0030508350C2D38BF24
:102EDC000C2538462946FFF7A5FF01302BD0236877
:102EEC002B4423600EE02268521B1ED40B2A16D9E9
:102EFC006119A342256018BF5960636808BF31602F
:102F0C0062514B60384604F10B0600F065F826F070
:102F1C000706231DF21AB6D09B1BA350B3E76268B9
:102F2C00A3420CBF32605A60ECE723466468B2E7F8
:102F3C0034467668B9E70C2338463B6000F04CF811
:102F4C00A1E72560DEE700BF200300202DE9F0415A
:102F5C00804614460E4621B91146BDE8F041FFF7F4
:102F6C0081BF2AB9FFF716FF25462846BDE8F08138
:102F7C0000F038F88442074602D8B4EB500F12D850
:102F8C0021464046FFF76EFF05460028EDD0BC42B7
:102F9C002246314628BF3A46FFF7D4FE314640461A
:102FAC00FFF7F8FEE1E73546DFE7000038B5002310
:102FBC00054D044608462B60FEF700F8431C02D171
:102FCC002B6803B1236038BD28030020014800F0B2
:102FDC0011B800BF2C030020014800F00CB800BF52
:102FEC002C03002051F8043C181F002BBCBF0B58BD
:102FFC00C018704770477047F8B500BFF8BC08BCE4
:10300C009E467047F8B500BFF8BC08BC9E4670479A
:10301C0041542B5253540D0A0000000041540D0A28
:10302C00000000004F4B0D0A0000000041542B43E0
:10303C00574D4F44453D310D0A00000074736569CE
:10304C003132333400000000483253454E534F5256
:10305C000000000041542B43574A41505F435552E6
:10306C003D222573222C222573220D0A000000001C
:10307C0041542B4349504D55583D300D0A0000002A
:10308C003139322E3136382E302E35005443500023
:10309C0041542B43495053544152543D22257322E1
:1030AC002C222573222C353030300D0A0000000004
:1030BC0025362E34660D0A0041542B434950534596
:1030CC004E443D360D0A00000000000000000000D8
:1030DC0001020304060708090000000001020304B2
:1030EC0002030405060708090A0B0C0D0E0F10103D
:1030FC0000232D302B2000686C4C0065666745461C
:10310C004700303132333435363738394142434455
:10311C0045460030313233343536373839616263E5
:04312C006465660070
:043130003101000861
:043134000D01000881
:103138000103001C000205CD0024F400010000007A
:10314800100000001800002000000000000000002F
:103158000000000000000000000000000000000067
:103168000000000000000000000000000000000057
:103178000000000000000000000000000000000047
:103188000000000000000000000000000000000037
:103198000000000000000000000000000000000027
:0831A80000000000000000001F
:0400000508001015CA
:00000001FF
